S01800006275696C642F6D6963617A2F6D61696E2E73726563E5
S11300000C945F010C9414070C941E070C9428079D
S11300100C9432070C943C070C9446070C94180C6F
S11300200C9450070C947E010C947E010C944F198F
S11300300C945D0F0C94DE060C94F4060C94F80AF0
S11300400C94CD060C947B110C94F3080C947E0153
S11300500C946F090C947E010C947E010C947E0127
S11300600C94E9060C94C50A0C94A40A0C94AF0AE7
S11300700C94BA0A0C94D80A0C94870A0C947E0146
S11300800C94990A0C947E010C947E01051253126F
S11300905D12B012CB12D1120A13C213E613FA1373
S11300A03B156E15F511E115EF15C516D116D316CE
S11300B0D616FB16FD113B170000211042206330B9
S11300C08440A550C660E770088129914AA16BB1AC
S11300D08CC1ADD1CEE1EFF1311210027332522254
S11300E0B5529442F772D662399318837BB35AA3FC
S11300F0BDD39CC3FFF3DEE3622443342004011424
S1130100E664C774A44485546AA54BB5288509954B
S1130110EEE5CFF5ACC58DD55336722611163006F3
S1130120D776F6669556B4465BB77AA7199738879B
S1130130DFF7FEE79DD7BCC7C448E5588668A778B3
S11301404008611802282338CCC9EDD98EE9AFF9EB
S1130150488969990AA92BB9F55AD44AB77A966A93
S1130160711A500A333A122AFDDBDCCBBFFB9EEB3B
S1130170799B588B3BBB1AABA66C877CE44CC55C63
S1130180222C033C600C411CAEED8FFDECCDCDDD8B
S11301902AAD0BBD688D499D977EB66ED55EF44E33
S11301A0133E322E511E700E9FFFBEEFDDDFFCCFDB
S11301B01BBF3AAF599F788F8891A981CAB1EBA12F
S11301C00CD12DC14EF16FE18010A100C230E320AB
S11301D00450254046706760B9839893FBA3DAB353
S11301E03DC31CD37FE35EF3B1029012F322D232FB
S11301F03542145277625672EAB5CBA5A895898523
S11302006EF54FE52CD50DC5E234C324A01481044A
S11302106674476424540544DBA7FAB79987B897F2
S11302205FE77EF71DC73CD7D326F2369106B0169A
S113023057667676154634564CD96DC90EF92FE9B2
S1130240C899E9898AB9ABA94458654806782768EA
S1130250C018E1088238A3287DCB5CDB3FEB1EFB92
S1130260F98BD89BBBAB9ABB754A545A376A167A3A
S1130270F10AD01AB32A923A2EFD0FED6CDD4DCD62
S1130280AABD8BADE89DC98D267C076C645C454C8A
S1130290A23C832CE01CC10C1FEF3EFF5DCF7CDF32
S11302A09BAFBABFD98FF89F176E367E554E745EDA
S11302B0932EB23ED10EF01E00081C181410112407
S11302C01FBECFEFD0E1DEBFCDBF11E0A0E0B1E0B3
S11302D0EAE8FAE300E00BBF02C007900D92A231F6
S11302E0B107D9F713E0A2E1B1E001C01D92AB312F
S11302F0B107E1F70E9470170C94441D0C940000A0
S11303008FB7F894992708958FBF0895282F9FB722
S1130310F894E82FFF27E452FD4F80818F3F81F44A
S1130320E091F402E21771F40BC02093D90204C0E7
S1130330FF27E452FD4F20832093F40220E007C0FE
S113034025E005C08091D9028F3F91F7EECF892F28
S113035099278FBF822F992708951F931FB7F89469
S11303608091D401882341F48EE00E948601882381
S113037019F481E08093D401812F99278FBF1F91B5
S11303800895FA01422F6683672F77276583838751
S113039021878091210190912201892B19F085E018
S11303A090E008952FB7F894332785E080932401D3
S11303B010922501F0932001E0931F0182E090E068
S11303C0909322018093210110922701109226011B
S11303D0445F409323012FBF9FB7F8948091F601A7
S11303E0882311F020E006C081E08093F60110928A
S11303F0F70121E0892F99278FBF222329F00E943A
S1130400AD0180E090E00895109222011092210144
S113041081E090E008951F93CF93DF93182FE82F86
S1130420FF27EE0FFF1FE45BFE4F11821082109234
S11304301101A0914C01B0914D01109721F08091D0
S1130440520180FF0CC081E08093110103C085E15B
S11304500E9486011123B9F41092F80214C0FD0120
S1130460359624813327ED016D817727762F662712
S113047081819927682B792BAD0186810E94C10166
S1130480882341F3E4CFDF91CF911F9108959FB763
S1130490F8948091C8028A3011F020E006C020E070
S11304A08091FC01843009F421E0892F99278FBFC2
S11304B0222349F080E10E9486018FB7F89499279E
S11304C010921C0106C08FB7F894992721E020935D
S11304D01C018FBF08952FB7F89433278CB95E9A07
S11304E02FBF0895FC016115710519F481E090E0B6
S11304F008958091190390911A03892B19F085E0CE
S113050090E008957093CB026093CA02F0931A03AB
S1130510E0931903109242011092410181E080930B
S113052095015E9A569A808121E030E03093420131
S1130530209341010E946B0280E090E00895809135
S11305402D018E7F80932D018EE78093AF0261E0B1
S113055070E08FEA92E00E94720299270895282F92
S11305609FB7F894662349F0E82FFF27E952FE4F1E
S11305708081882311F021E006C0E22FFF27E95291
S1130580FE4F608320E0892F99278FBF822F992700
S11305900895E82F8FB7F894282F332790E0FF278A
S11305A0E952FE4F8081861709F491E02FBF892F0D
S11305B099270895882311F06E9A08956E980895E6
S11305C0882311F06F9A08956F98089580E00E942F
S11305D0DA02BA9ABB98B99A6C9A80E00E94E00257
S11305E0709A6B986A98689881E00E94DA0208957C
S11305F00F931F93CF93DF93182F8FB7F894C82FBF
S1130600DD270C2F61E080E00E94AF02882321F0F7
S1130610CFBF85E090E024C0809105018823A1F438
S113062080911701823081F409C082E08093170120
S1130630109205010E94E602B89AC0981093020134
S113064080E00FBF99270CC080911701882369F3BC
S11306508FB7F89499271092D7018FBF81E0F1CF1B
S1130660DF91CF911F910F9108951F93182F81E06F
S11306700E94DA021FB9779BFECF8FB199271F9191
S113068008958F929F92AF92BF92CF92DF92EF9292
S1130690FF920F931F93CF93DF938FB7F89499270B
S11306A0C090DE01D090DF0180904A0190904B0110
S11306B0C0915601D091570120917002309171027E
S11306C05AE0A52EB12CAC0EBD1E2A153B0508F42C
S11306D059018FBF7401EC0EFD1E86010C0F1D1F06
S11306E014C0C114D10419F0F801808101C080E064
S11306F00E9435038114910411F0F701808321963F
S11307000894E11CF11C0F5F1F4FC5010197C81726
S1130710D90738F381E00E94E0029FB7F894C1142E
S1130720D10431F0CC0EDD1EF60180818FB901C0F9
S11307301FB8D0935701C0935601892F99278FBFB3
S113074080E090E0DF91CF911F910F91FF90EF90A7
S1130750DF90CF90BF90AF909F908F9008952FB768
S1130760F894332750937102409370029093DF0101
S11307708093DE0170934B0160934A0110925701FC
S1130780109256012FBF452B29F08FB10E944103CF
S11307909927089587E00E94860180E090E00895FB
S11307A08FB7F89499271092D9018FBF08957FB716
S11307B0F89462B720916C0230916D0240916E0200
S11307C050916F0206B601FE0FC081B792B7280F91
S11307D0311D411D511D2F5F3F4F4F4F5F4F290F5B
S11307E0311D411D511D04C0260F311D411D511DD8
S11307F0872F99278FBFCA01B9010895EF92FF92FD
S11308000F931F93E0913A01E1FF2BC02091320135
S1130810309133014091340150913501E09036011B
S1130820F09037010091380110913901621B730B6C
S1130830840B950B6E157F058007910790F0E0FF00
S113084004C0ED7FE0933A010CC02E0D3F1D401F04
S1130850511F20933201309333014093340150935C
S113086035018BE00E9486011F910F91FF90EF905C
S11308700895DF92EF92FF920F931F938FB7F8942E
S1130880282F3327D22E91B782B746B7981711F085
S113089041FF02C02FBF6AC0809172028823E1F138
S11308A00E94D703E090F801F090F9010091FA0159
S11308B01091FB012091A7023091A8024091A90256
S11308C05091AA026E197F09800B910B621773076E
S11308D08407950720F01092720271E01EC02E0D5D
S11308E03F1D401F511F80916C0290916D02A09199
S11308F06E02B0916F02281B390B4A0B5B0B273E2B
S113090031054105510540F4822F223010F070E08A
S113091005C070E082E002C070E086EE682F61508E
S113092000B601FCFDCF82B7681709F46F5F209110
S11309306C0230916D0240916E0250916F02DA01A7
S1130940C9010196A11DB11D860F911DA11DB11DE7
S113095082179307A407B50710F4622F609561BF4F
S1130960DFBE772319F08AE00E9486011F910F9160
S1130970FF90EF90DF900895AFB7F894BB27E1E0C4
S1130980E09372026093F8017093F9018093FA0185
S11309909093FB012093A7023093A8024093A902ED
S11309A05093AA02AFBF0E943904089580E880934F
S11309B04E01109253011092EB011092FE0110921D
S11309C0F6020895CF93DF93FC0115A6DC019E96F1
S11309D0ED011B821A82198280E886A7DF91CF91EC
S11309E008952F923F924F925F926F927F928F92CF
S11309F09F92AF92BF92CF92DF92EF92FF920F93AA
S1130A001F93CF93DF93CDB7DEB728970FB6F89433
S1130A10DEBF0FBECDBF2090910130909201409077
S1130A20930150909401662477248824AEE4AA2E7E
S1130A30F3E8BF2ECC24DD24EE24FF2400E010E0F4
S1130A40222D332D442D552D662D772D882D90E0A4
S1130A500E94111B29833A834B835C836D837E83BD
S1130A608F839887822E932EA42EB52E24013501D0
S1130A7000E20E940F1CA22EB32EC42ED52EC30159
S1130A80B20196958795779567956A0D7B1D8C1DA8
S1130A909D1D97FF05C09F776F5F7F4F8F4F9F4FBF
S1130AA060939101709392018093930190939401C8
S1130AB028960FB6F894DEBF0FBECDBFDF91CF915D
S1130AC01F910F91FF90EF90DF90CF90BF90AF9068
S1130AD09F908F907F906F905F904F903F902F905A
S1130AE008958FB7F89460915001709151012CB51D
S1130AF03DB506B602FE04C06F5F7F4F2CB53DB511
S1130B0099278FBF88279927CB0177276627442702
S1130B105527622B732B842B952B0895EF92FF920C
S1130B200F931F930E9471057B018C012091CB01CF
S1130B303091CC014091CD015091CE018091C402FD
S1130B409091C502A091C602B091C702820F931F73
S1130B50A41FB51FE216F3060407150730F0821729
S1130B609307A407B50758F005C082179307A40795
S1130B70B507E0F5E816F9060A071B07B8F59C0166
S1130B80AD012E193F09400B510B213060E83607A7
S1130B9060E0460760E0560768F180E090E8A0E076
S1130BA0B0E0E80EF91E0A1F1B1FE092CB01F09281
S1130BB0CC010093CD011093CE0180E090E8AFEF1B
S1130BC0BFEFE80EF91E0A1F1B1F2050304840409B
S1130BD050402093C4023093C5024093C602509300
S1130BE0C70220E030E840E050E014C020E030E0EC
S1130BF040E050E08093CB019093CC01A093CD01D1
S1130C00B093CE011092C4021092C5021092C60293
S1130C101092C702A901B7012CB53DB5C9018E19BF
S1130C209F0903968417950720F0B9016D5F7F4FE4
S1130C3002C0640F751F6115710511F461E070E065
S1130C40615070407BBD6ABD80E186BF87B780611B
S1130C5087BF1F910F91FF90EF9008950F931F93FB
S1130C600FB7F89411276093CB017093CC01809354
S1130C70CD019093CE012093C4023093C5024093DA
S1130C80C6025093C7020E948E050FBF1F910F9199
S1130C900895CF92DF92EF92FF920F931F93CF9319
S1130CA0DF938C01F62E6A01E22E8FB7F894C82FD9
S1130CB0DD2760E080E00E94C902882321F0CFBFD5
S1130CC080E090E01EC0CFBF0F0D111D802F806803
S1130CD00E943503F82E16950795802F807C0E947C
S1130CE035030E2D0AC0EE2DFF27E01BF109EC0D94
S1130CF0FD1D80810E94350301500023A1F78F2D33
S1130D009927DF91CF911F910F91FF90EF90DF9082
S1130D10CF900895CF93DF93CDB7DEB724970FB666
S1130D20F894DEBF0FBECDBF8FB7F89499272091FA
S1130D30E3013091E4012983232F33272A8320916F
S1130D40DA023091DB022B83232F33272C838FBFCE
S1130D5024E0AE014F5F5F4F60E088E691E00E94BF
S1130D60490624960FB6F894DEBF0FBECDBFDF91BF
S1130D70CF91089597B79F7D97BF90E296BF882340
S1130D8019F08EB5806402C08EB58F7B8EBD87B797
S1130D90806287BF80E090E008951F920F920FB6A3
S1130DA00F9211248F9383B783BF00B600FCFDCF4D
S1130DB08F910F900FBE0F901F90189578941F92EB
S1130DC00F920FB60F9211240F900FBE0F901F9029
S1130DD0189578941F920F920FB60F9211240F90CA
S1130DE00FBE0F901F90189578941F920F920FB614
S1130DF00F9211242F933F938F939F932FB7F894BF
S1130E0033278091500190915101019690935101A3
S1130E10809350012FBF9F918F913F912F910F90FD
S1130E200FBE0F901F9018951F920F920FB60F923E
S1130E3011240F900FBE0F901F9018951F920F92C0
S1130E400FB60F9211240F900FBE0F901F9018959C
S1130E501F920F920FB60F9211240F900FBE0F9096
S1130E601F9018951F920F920FB60F9211240F9096
S1130E700FBE0F901F9018951F920F920FB60F92EE
S1130E8011240F900FBE0F901F9018951F920F9270
S1130E900FB60F9211240F900FBE0F901F9018954C
S1130EA01F920F920FB60F9211240F900FBE0F9046
S1130EB01F901895E8EBF0E06927660FF11DE60F27
S1130EC0F11DC895982F802D3196C89590250895C9
S1130ED0982F80912801882381F5992371F531E0B9
S1130EE03093280180910A018093290120911D01EA
S1130EF0822F817080938D0180910F019091100158
S1130F0090932B0180932A0180911E0180932C01E0
S1130F1032273170267EE32FFF27EE0FFF1FE55F98
S1130F20FE4F808191819093100180930F01232BB8
S1130F3020931D0183E10E94860108950F931F935E
S1130F40082F162F8091FC018130D9F0813038F0C0
S1130F50823009F44AC0833009F00EC159C000231D
S1130F6009F43EC110924401109243011092AB0265
S1130F701092B0021092EA0110923F0110923E01C9
S1130F801FC1002309F02CC180913E0190913F01C3
S1130F900E945A0790933F0180933E0182E0809320
S1130FA0FC011093B002143409F0E6C00BC186951D
S1130FB004C080911D0186958695817009F0DCC07E
S1130FC080911D01992311F0846001C08260809397
S1130FD01D0180911D01877E886080931D01109200
S1130FE01E018FEF80930A01FBC0002309F0C4C0E7
S1130FF06093EA0180913E0190913F010E945A075B
S113100090933F0180933E0183E08093FC01E8C00C
S11310108091AB028F3F09F4AFC0002309F447C0AD
S1131020823008F4A9C0E0914301EE2309F4D1C051
S11310304E2F4150E42FFF27ED5BFE4F828199270D
S1131040382F2227442311F4E2E002C0E42FE150B8
S1131050FF27ED5BFE4F82819927282B392B809146
S11310603E0190913F012817390709F085C080E0BF
S11310700E9468073091EA018091D1022091D20246
S1131080982F9F5F963008F090E0921709F474C08F
S1131090E82FFF27EF52FD4F32838F5F8093D102F9
S11310A0863010F01092D1020E94AD0165C08230EA
S11310B008F44EC0E0914401FF27ED5BFE4F8281AE
S11310C0482F5527342F20911D01822F8695869510
S11310D08695837099278130910519F00297F9F468
S11310E00EC0277E206120931D01442311F485E066
S11310F001C080E080931E0130930A0110C08091EA
S11311001E01843360F4E0910F01F0911001E80FA7
S1131110F11D408380911E018F5F80931E01809199
S11311204401E82FFF27ED5BFE4F62818F5F8093C0
S11311304401833010F010924401772780913E01DE
S113114090913F010E945A0790933F0180933E0182
S113115080914301E82FFF27ED5BFE4F12838F5FE1
S113116080934301833010F0109243018091AB02CD
S11311708F5F8093AB0234C01092440110924301FC
S11311801092FC011092AB021092B0021092EA018C
S113119010923F0110923E0180912D018D7F80932A
S11311A02D0181E00E94680780911C01882331F0A1
S11311B084E08093FC010E94470212C0002381F066
S11311C081E023CF80911D01982F917080FDEFCE97
S11311D0F0CE809147019927382F222742E036CF5D
S11311E01F910F9108951F920F920FB60F92112421
S11311F02F933F934F935F936F937F938F939F931B
S1131200AF93BF93EF93FF935F9B3DC06CB1E091AD
S1131210BD02F091BE023097F9F08091F0019091F7
S1131220F101E80FF91F608301969093F101809317
S1131230F00120910002309101028217930718F106
S11312401092BE021092BD0280914F018330D9F0FA
S1131250579810924F0117C06E3719F460E081E07F
S113126010C080912D016D3721F4826080932D018F
S11312700AC081FF05C08D7F80932D0180E268271D
S113128080E00E949E07FF91EF91BF91AF919F91E3
S11312908F917F916F915F914F913F912F910F901B
S11312A00FBE0F901F901895982F8D57823068F4B9
S11312B080912D01816080932D0180E289278093A4
S11312C0DD018DE78093AF0202C09093AF0261E02D
S11312D070E08FEA92E00E94720299270895789450
S11312E01F920F920FB60F921124FF920F931F9328
S11312F02F933F934F935F936F937F938F939F931A
S1131300AF93BF93CF93DF93EF93FF93209141016A
S1131310309142018091CA029091CB02281739077B
S113132080F4E0911903F0911A03E20FF31F808116
S11313302F5F3F4F30934201209341010E946B0283
S1131340D0C010921A031092190310929501569866
S113135080912D0180FF0EC08E7F80932D0180919E
S1131360DD018093AF0261E070E08FEA92E00E94B9
S11313707202B7C08091C802843009F494C08530E9
S113138040F4823021F18330B8F5813009F0A4C0F3
S11313900DC0863009F495C0863008F48BC08730C0
S11313A009F496C0883009F097C099C08091D002A2
S11313B00E945409182F83E08093C8026091D002E0
S11313C08091E5019091E6010E945A0710C0809136
S11313D0EF010E945409182F83E08093C8026091A2
S11313E0EF018091E5019091E6010E945A079093E4
S11313F0E6018093E5016EC0FFB6F894E091C9025E
S1131400FF27EE0FFF1FEB50FE4F80810E9454090F
S1131410082F1091C902C12FDD27FE01EE0FFF1F17
S1131420EB50FE4F60818091E5019091E6010E94AE
S11314305A079093E6018093E5012091E9012F5F1B
S11314402093E901113039F580912401E0911F01C5
S1131450F0912001E80FF11DE0818F5F809324015A
S113146090912301981730F482E08093F60140E0D4
S113147050E002C04E2F5527DE01AA0FBB1FFD010D
S1131480EC50FE4F8081823031F02F3F21F0AB5081
S1131490BE4F4C9303C084E08093C802102F8F2D5D
S11314A099278FBF17C08091E5010E945409182F16
S11314B085E00BC08091E6010E945409182F86E054
S11314C004C00E949F02182F87E08093C80202C0C4
S11314D088E003C0112329F089E08093C8020E94A8
S11314E0AD01FF91EF91DF91CF91BF91AF919F91AA
S11314F08F917F916F915F914F913F912F911F91A8
S11315000F91FF900F900FBE0F901F9018951F9290
S11315100F920FB60F9211248F9380919B0087FF37
S113152002C080919C008F910F900FBE0F901F906E
S1131530189578941F920F920FB60F9211240F9062
S11315400FBE0F901F90189578941F920F920FB6AC
S11315500F9211240F900FBE0F901F90189578943E
S11315601F920F920FB60F9211240F900FBE0F907F
S11315701F90189578941F920F920FB60F92112412
S11315800F900FBE0F901F90189578941F920F9292
S11315900FB60F9211248F939F938091880090919E
S11315A089009F918F910F900FBE0F901F901895F7
S11315B078941F920F920FB60F9211242F933F939A
S11315C08F939F932FB7F894332780915401909170
S11315D05501019690935501809354012FBF9F911B
S11315E08F913F912F910F900FBE0F901F901895E0
S11315F01F920F920FB60F9211242F933F934F9384
S11316005F936F937F938F939F93AF93BF93EF9366
S1131610FF9383B783BF00B600FCFDCF81B7992742
S11316200196AA27BB2720916C0230916D0240914C
S11316306E0250916F02280F391F4A1F5B1F2093BF
S11316406C0230936D0240936E0250936F02789453
S11316500E943904FF91EF91BF91AF919F918F91B7
S11316607F916F915F914F913F912F910F900FBE9A
S11316700F901F9018950F931F93182F0FB7F8947E
S113168061E080E00E94AF02882371F510930201AB
S1131690809105018823A9F580911701823089F58D
S11316A086E00CC00E94E60280911701882349F469
S11316B081E0809317011092FF0188E00E94860167
S11316C02AC08091F7028F3F31F5E0910401EE23A7
S11316D011F11CC01092030104C0FF27E950FD4F13
S11316E010821092040117C081E090E002C0880FBC
S11316F0991F1A95E2F720911601282B20931601C1
S11317000AC0809117018823E1F6CCCF80910301B0
S11317108F3F19F7DFCF802F99278FBF80E090E0AC
S11317201F910F9108951F9383E00E94F802992757
S1131730182F882319F083E00E943B0B812F9927EF
S11317401F9108951F93CF93DF93182F8FB7F894A9
S1131750C82FDD2760E080E00E94C902882321F0C1
S1131760CFBF80E090E005C0CFBF812F0E9435033A
S11317709927DF91CF911F910895EF92FF920F93D4
S11317801F93CF93DF93182F7B01042F8FB7F89407
S1131790C82FDD2760E080E00E94C902882321F081
S11317A0CFBF80E090E014C0CFBF1064812F992791
S11317B09093EE018093ED010E943503182F402F82
S11317C05527B70180E090E00E94AF03812F99274D
S11317D0DF91CF911F910F91FF90EF900895C098E2
S11317E060912F017091300141E08FE30E94BD0BA5
S11317F0089582E090E09093900180938F0181E0BE
S11318008093530120E030E080910201843011F490
S113181021E030E0232B29F484E00E94F80288239D
S113182019F40E94EF0B089584E00E943B0B089585
S11318301F920F920FB60F9211242F933F934F9341
S11318405F936F937F938F939F93AF93BF93EF9324
S1131850FF9380918F0190919001019719F40E9458
S1131860F90B05C08091F6028F5F8093F602FF9119
S1131870EF91BF91AF919F918F917F916F915F9104
S11318804F913F912F910F900FBE0F901F9018957D
S11318901F9380911601882309F046C0109102011C
S11318A01F3F09F041C060E00E94C9028823E1F1B2
S11318B081E080933D0180912E018823C1F1109233
S11318C03D0185E090E041C0923049F5C09A809195
S11318D0030190E08F3F09F491E09923D9F48F3FFD
S11318E019F42FEF30E00DC0282F3327F901E95008
S11318F0FD4F8081809303018F3F11F48093040195
S113190010832093FF0181E08093170188E00E94F7
S1131910860105C0109305011092170111C0809132
S11319201701882369F00FC081E090E00EC0809118
S1131930050190911701882339F2923021F0EFCFFD
S113194080E00E94DA0280E090E01F9108951F93E6
S1131950CF93DF939FB7F894C92FDD271C2F909165
S11319600201981721F0CFBF81E090E03AC08FEFD9
S113197080930201309116013323F1F48FB7F89468
S113198099271092D7018FBF0E94480CCFBF11C076
S11319902093020181E090E002C0880F991F4A95CC
S11319A0E2F7809538233093160186E00E94860181
S11319B01FBF80E090E015C080E065E0E32FFF27C3
S11319C00E94991C292F492F5527CF01042E02C0AC
S11319D0959587950A94E2F780FDDACF822F8F5F81
S11319E0EFCFDF91CF911F9108951F93CF93DF9392
S11319F08FB7F894C82FDD271C2F80918F01909109
S1131A009001892B29F484E00E94A70CCFBF1EC04B
S1131A10109253018091F602882311F0B79904C003
S1131A200E9908C0882319F081508093F6020E9411
S1131A30F90B0BC081E090E09093900180938F01AB
S1131A401092F60284E00E94A70C1FBFDF91CF9191
S1131A501F9108950E94D604C09AC09888E00E94FD
S1131A60A20B88E00E94A20BC09A84E00E94A70CFB
S1131A700E94F50C0895FF920F931F93CF93DF9369
S1131A80F82E8B018FB7F894C82FDD2760E080E033
S1131A900E94C902882321F0CFBF80E090E00CC0EF
S1131AA0CFBF8F2D0E943503812F99270E943503C4
S1131AB0802F0E9435039927DF91CF911F910F91B9
S1131AC0FF9008951F931FB7F89480918E01882387
S1131AD019F460E070E009C060E08091CC028823D2
S1131AE009F461E081E068277727809196018823D3
S1131AF019F480E090E00AC090E08091D30188233B
S1131B0009F491E081E09827892F9927762F662799
S1131B10770F770F770F24E0880F991F2A95E1F745
S1131B20826E9262682B792B81E10E943B0D812F9A
S1131B3099278FBF1F9108958FB7F89499276091C3
S1131B40C3028FBF85E0689FB0011124625D7E4FA0
S1131B50706488E10E943B0D0895EF92FF921F93F9
S1131B60CF93DF93E090D101F090D201F70182A5E9
S1131B709927182F882309F41FE1C0988091CE0279
S1131B80811749F0612F77276F717070606E7068EC
S1131B9085E10E943B0D1093CE02F70110818FB7AF
S1131BA0F894C82FDD2760E080E00E94C9028823F2
S1131BB011F0CFBF12C0CFBF8EE390E09093EE013F
S1131BC08093ED018EE30E9435031150412F552778
S1131BD060E070E0C7010E94AF03DF91CF911F91D5
S1131BE0FF90EF900895CF92DF92EF92FF920F93C0
S1131BF01F93CF93DF93E82E6B01E82FFF27EE0F9F
S1131C00FF1FE85BFE4F1182108210920901C09100
S1131C104801D0914901209721F08091CF0280FFA3
S1131C207AC081E0809309016BC0809131018F5F9C
S1131C308093310181508B838FE38A878FB7F89427
S1131C40082F112762E081E00E94C902882321F451
S1131C500FBF0E94D00351C08FB7F894992724E096
S1131C602093D8018FBFD093F302C093F2020FBF29
S1131C70FE01F19289819927807290708983118283
S1131C8089819927816498688983892F9927818319
S1131C901CA618A619A61DA619AA18AA1FA680E88C
S1131CA08EA761E06093CD024091F2025091F3025D
S1131CB08FB7F894282F3327809118019091190138
S1131CC08830910511F0019711F02FBF19C082E0FF
S1131CD090E090931901809318016093DB01509375
S1131CE0D2014093D1011092EC012FBF0E94930BBB
S1131CF0882331F40E94AD0D03C08DE00E9486015B
S1131D00EE2009F035C089E5C81681E0D80681F5D2
S1131D101092AC022DC08F812E819927982F88278D
S1131D203327822B932BF8808E83892F99278F83D7
S1131D302FB7F89433278091E3019091E4012FBFEA
S1131D408C83892F99278D832FB7F894332780911B
S1131D500601909107012FBF8887892F99278987CA
S1131D6061E082E00E94AF02882309F0C6CF5DCF14
S1131D70DF91CF911F910F91FF90EF90DF90CF9063
S1131D8008951F93182F81E090E090931901809398
S1131D90180110922E010E94480C8FB7F8949927CD
S1131DA0109312018FBF82E00E9486011F91089553
S1131DB0CF92DF92EF92FF920F931F93CFB6F894D6
S1131DC0DD240E94F104DC01CB0166E470E00E9492
S1131DD0A51C1BE0E12EF12CE80EF91EF092E101A6
S1131DE0E092E0010E94710500271127A8019701E4
S1131DF00E942E06CFBE1F910F91FF90EF90DF90AF
S1131E00CF9008951F93CF93DF938FB7F894C82F83
S1131E10DD271C2F80911801909119010897C9F4AE
S1131E2089E00E94A20B83E00E94A70CC09A81E083
S1131E3090E090931901809318018FB7F894992733
S1131E4023E0209312018FBF82E00E948601CFBF5E
S1131E5030C0C0988091DB01882311F085E001C077
S1131E6084E00E94A20B83FD09C080E00E94A20BC3
S1131E7083FF04C085E090E020E003C083E090E0AD
S1131E8021E09093190180931801C09A1FBF222367
S1131E9041F01092EC0183E00E94A70C0E94D80E3E
S1131EA008C00E94710520E431E040E050E00E9447
S1131EB02E06DF91CF911F91089578941F920F926F
S1131EC00FB60F9211241F932F933F934F935F9359
S1131ED06F937F938F939F93AF93BF93EF93FF93EE
S1131EE087B78F7E87BF78941FB7F8948091C40218
S1131EF09091C502A091C602B091C7020097A105B6
S1131F00B10509F051C080911801909119018530F3
S1131F10910561F18630910530F48330910549F0E3
S1131F20049781F51AC087309105F1F0089751F5AF
S1131F3014C0869B0FC084E090E0909319018093B5
S1131F4018010E94710527E030E040E050E00E9453
S1131F502E0618C00E94D80E15C00E94930B882329
S1131F6089F40E94020F0EC080E00AC089E00E943A
S1131F70A20B81E00E94BA0683E00E94A70C87E0CE
S1131F800E94C10E8091130190911401019771F484
S1131F9082E090E09093140180931301DE98DE9A1E
S1131FA080E00E943B0B02C00E948E05812F99277E
S1131FB08FBFFF91EF91BF91AF919F918F917F91CF
S1131FC06F915F914F913F912F911F910F900FBE91
S1131FD00F901F901895EF92FF920F931F93CF933A
S1131FE0DF938B018091ED019091EE0186FF2AC170
S1131FF08F7B8F3309F078C1C0912F01D0913001CC
S113200058815093400180918F01909190018330C9
S1132010910509F443C08430910509F48AC00297FC
S113202009F009C183E090E09093900180938F01BF
S113203040914E01852F99270196242F3327281785
S113204039074CF1B79906C00E9904C0451B41509D
S113205040934E01409140014A32E8F44423A1F0F8
S1132060BE016F5F7F4F483018F047E050E007C073
S113207084E090E09093900180938F01552780E055
S113208090E00E94AF0330C110925301C09A84E0E3
S11320900E94A70CCDC00E942A0D26C184E090E0C6
S11320A09093900180938F0180919601882309F485
S11320B039C08091D3018823A9F5898185FF32C075
S11320C08F814E812FB7F89433276091DA02709193
S11320D0DB022FBF9927982F88275527842B952B10
S11320E08617970759F08F812E819927982F882773
S11320F03327822B932B8F5F9F4FA1F489818770A5
S1132100813081F4C09AC0988AE00E94A20BC09AE0
S1132110C0984091400147502896BE018FE30E9429
S1132120BD0BE2C040914001475055272896BE019F
S1132130A6CFC09A8091F602882319F484E00E9405
S1132140A70C8091FE018823A1F1809140018B307E
S1132150B0F1E091EB01FF27EE0FFF1FEE0FFF1F21
S1132160E750FD4F2081318142815381E0912F015D
S1132170F091300121ABBB27A52F942F832F80AB87
S1132180CA01AA27BB2787A7252F3327442755270A
S113219026A78091EB019927019668E070E00E94E0
S11321A0B91C8093EB018091FE0181508093FE0164
S11321B006C080912F01909130010E94E204809129
S11321C04001FE01E80FF11D808187FF31C0012B22
S11321D079F169816770E0912F01F09130016230EB
S11321E019F5A091D101B091D201109709F1809114
S11321F01801909119010797D9F4ED019B8183810E
S11322009817B1F487B78F7E87BF908181E08CA740
S1132210E90FF11D8291319688A780818F7789A774
S113222080E00E94C10E04C0613011F489E02AC02C
S11322300E94F50C59C010925301C09A84E00E9488
S1132240A70C52C08E3309F04FC0C09A8091180178
S1132250909119010897C9F4C09889E00E94A20BD3
S1132260C09A83E00E94A70C81E090E0909319014A
S1132270809318018FB7F894992723E020931201D3
S11322808FBF82E00E9486012FC08091DB018823EA
S113229049F484E090E090931901809318010E941E
S11322A0020F22C083E00E94A70C83E090E0909389
S11322B01901809318010E94F104DC01CB0166E34B
S11322C071E00E94A51C0BE0E02EF12CE80EF91E33
S11322D0F092D001E092CF010E94710500271127EE
S11322E0A80197010E942E06DF91CF911F910F91B3
S11322F0FF90EF9008951F920F920FB60F92112442
S11323002F933F934F935F936F937F938F939F93F9
S1132310AF93BF93EF93FF932FB1E0914A01F091F4
S11323204B01309739F08091560190915701E80F95
S1132330F91F208380915601909157010196909343
S113234057018093560180E00E94E00240917002A0
S1132350509171028091560190915701841795070D
S113236018F40E9441031CC060914A0170914B0112
S11323708091DE019091DF0110924B0110924A018D
S11323801092DF011092DE0110927102109270021D
S113239010925701109256012FB120E00E94EB0FCA
S11323A0FF91EF91BF91AF919F918F917F916F9129
S11323B05F914F913F912F910F900FBE0F901F90FF
S11323C01895EF92FF920F931F93CF93DF93E82F0B
S11323D0FF27E631F10508F05FC5EA5BFF4FEE0F1A
S11323E0FF1F0590F491E02D09948091CF0288237A
S11323F009F452C540E051E0C1C3809152018823E1
S113240009F44AC520E031E018C50FB7F894112744
S113241081E00E94BA06E1E0EE2EF12CF09219015F
S1132420E092180110921A0110922E011092CE021D
S11324300FBF0FB7F89411270E94D604F0929001B1
S1132440E0928F011092530189B78F7B89BF80E49A
S113245088BF8AB780628ABF8AB78F7E8ABF89B7EE
S1132460806489BF0FBF8FB7F894082F112780911C
S1132470130190911401049719F483E00E94A20BB4
S11324800FBF0FB7F8941127C09A80E00E94A70CE1
S11324900FBF8FB7F894992722E02093D8018FBFFC
S11324A01092AC02F9C48FB7F89499271092D8010E
S11324B08FBF81E08093AC02EFC48FB7F894992763
S11324C0F09012018FBF63E081E00E94C90288236B
S11324D059F10FB7F89411271092190110921801AD
S11324E087B78F7E87BF87B78F7D87BF83E00E94C2
S11324F0A70CC09A0FBF0FB7F89411271092900140
S113250010928F010E94D604C09A89B78F7B89BF2D
S11325100FBF1092140110921301DE98DD98DE9A19
S113252081E00E94860107C08FB7F894992722E0C2
S11325302093D8018FBF0091F2021091F3020E9400
S1132540D00380910901882309F0A6C46091480151
S1132550709149016017710709F09EC44F2D3CC367
S11325608FB7F894282F3327122F8091580188238E
S113257001F581E080935801809113019091140139
S1132580049721F481E00E943B0B03C084E00E9485
S113259086011FBF81C48FB7F89499271092580100
S11325A04AC48FB7F894282F3327809115018823C4
S11325B011F02FBF71C42FBF80B3992776E0969591
S11325C087957A95E1F7182F117090913C018091CD
S11325D0E2018917D9F01917C9F484E090E09093C7
S11325E01401809313018FB7F894992721E0209365
S11325F015018FBF60E070E08DE10E943B0D0E94E9
S11326008A06C09AC09880E00E9486011093E20175
S113261085E068C08FB7F8949927109102018FBFA5
S1132620123009F462C0133030F4112359F0113020
S113263009F032C443C0133009F471C0143009F0F6
S11326402BC49DC0C0988FB7F894C82FDD27809104
S1132650130190911401029779F583E090E090932F
S113266014018093130168E170E08DE10E943B0D39
S113267081E080933C011092150180B3992766E0B4
S1132680969587956A95E1F7817090708093E20141
S113269085E00E94860181E00E94A20B6FE772E050
S11326A08CE10E943B0D0E949C0D0E94620D66E528
S11326B07AE287E10E943B0DCFBFEEC3C09886E06B
S11326C00E94A20B0E949C0D0E94620D0E948A0629
S11326D0C09AC09883E00E94A20BC09A81E00E9435
S11326E0A70C84E00E948601D7C3C0988FB7F894E2
S11326F0082F112760E080E00E94C902882311F0AE
S11327000FBF0AC00FBF83E50E94350380E00E941B
S1132710350380E00E943503C09A82E02DC08FB754
S1132720F8949927209118018FBF243039F028306C
S113273041F0223001F50E94AD0DAEC30E94020F9C
S1132740ABC3C09889E00E94A20BC09A83E00E94A8
S1132750A70C8FB7F894992721E030E03093190142
S1132760209318018FBF8FB7F89499271093120103
S11327708FBF82E0B7CF83E00E94A70C8DC30E9475
S1132780EF0B8AC30FB7F894112740917002509150
S1132790710260914A0170914B018091DE01909128
S11327A0DF0110924B0110924A011092DF01109246
S11327B0DE01109271021092700210925701109271
S11327C0560120E00E94EB0F0FBF66C32FB7F894A9
S11327D033278091FF018093050182E080931701E4
S11327E02FBF80910501882309F056C3B89AC09879
S11327F086E078CFA0912F01B09130011C91FD01AA
S1132800E10FF11D8081881F8827881FED018BA7A8
S113281080818F7789A73197808188A7E0912F01E4
S1132820F09130018FB7F894992720918E018FBFD2
S11328302223F9F0878146812FB7F89433276091DA
S1132840DA027091DB022FBF9927982F882755272A
S1132850842B952B8617970761F08781268199270A
S1132860982F88273327822B932B8F5F9F4F09F054
S1132870F9C01D3008F4F6C0C0912F01D091300189
S11328808A858F3309F0EAC0898528859927582FCE
S113289044273327422B532B6B818FEF8093F50210
S11328A08FB7F894782F20E030E0E1EBF2E08081FC
S11328B091818417950731F48281861709F461C0E8
S11328C02093F5022F5F3F4F33962430310579F77B
S11328D07FBF9091F5023FB7F8949F3F21F080911C
S11328E01B01891799F420911B01822F9927FC0160
S11328F0EE0FFF1FE80FF91FEF54FD4F5183408384
S113290062832F5F237020931B010CC0892F9927AA
S1132910FC01EE0FFF1FE80FF91FEF54FD4F518329
S113292040836283832F99278FBF8BA5882309F463
S113293095C08F814E812FB7F8943327609106019B
S1132940709107012FBF9927982F88275527842B2B
S1132950952B8617970761F08F812E819927982FE1
S113296088273327822B932B8F5F9F4F09F076C0E4
S11329708B85893009F072C0123129F0A0E0B0E0F3
S113298004C07FBF6BC0DE011C968FE98093A30156
S1132990FD0181919F0199278093A5011092A401C3
S11329A0FD018181F90121819927982F88273327F7
S11329B0822B932B8093A701892F99278093A601BB
S11329C0FD01838124819927982F88273327822B1F
S11329D0932B8093A901892F99278093A801809133
S11329E0F802882399F547E951E08FEF80939D0120
S11329F080939C018BE08093A20180914C01909183
S1132A004D01892B19F550934D0140934C0187E0FA
S1132A108093A001809111018823A9F010921101E3
S1132A2027E06FEF7FEF8BE00E94C1019927282FE9
S1132A30882349F081E08093110110924D01109296
S1132A404C01222319F481E08093F8028FB7F894A3
S1132A5099272BB334E023272BBB8FBFD0933001AE
S1132A60C0932F018FB7F8949927109253018FBF09
S1132A700E94F50C11C280913B01882361F52091DD
S1132A80BF023091C0024091C1025091C202EFB71F
S1132A90F894FF276091F8017091F9018091FA018F
S1132AA09091FB01E090A702F090A8020091A90286
S1132AB01091AA026E0D7F1D801F911FEFBF2093FE
S1132AC0BF023093C0024093C1025093C2021092DD
S1132AD03B010E94BC040E94D7033AC00E94D70362
S1132AE07B018C018FB7F8949927109272028FBFE3
S1132AF080913A0181FFD0C18091320190913301DC
S1132B00A0913401B0913501A8019701281B390B1C
S1132B104A0B5B0BDA01C901209136013091370170
S1132B204091380150913901281B390B4A0B5B0B3A
S1132B302F3F8FEF38078FEF48078FE7580709F4C7
S1132B40ABC112161306140615062CF0C801B70102
S1132B500E94FE03A1C12093BF023093C0024093A0
S1132B60C1025093C20281E080933B01C801B701C6
S1132B700E94BC0491C10E9447028EC19091CF0271
S1132B80852F8923C1F0E42FFF27EE0FFF1FE85B99
S1132B90FE4F2081318111821082852F80959823E8
S1132BA09093CF02442339F42955314009F071C17F
S1132BB01092AC026EC14F5F483008F06DC1550FE2
S1132BC0DDCF80910901E82FFF27EE0FFF1FE85B9F
S1132BD0FE4F6081718141E00E94F30D5DC18FB7AA
S1132BE0F8941092D4012091C80240E0283009F4EE
S1132BF041E030E0293009F431E0442311F4332377
S1132C0051F01092C802E091C902FF27EE0FFF1F96
S1132C10EC50FE4F108299278FBF442311F43323C5
S1132C2019F18091EF018F5F8093EF018091D002C1
S1132C308334A1F49FB7F8942091D2028091D102F9
S1132C40821741F0822F8F5F8093D202863010F07A
S1132C501092D202892F99278FBF0AC0A0E0442383
S1132C6009F4A1E071E006C0222311F010E069C06C
S1132C70A0E070E08FB7F894992720911C018FBFD2
S1132C80222341F08FB7F89499272AE02093C802B1
S1132C908FBF43C08FB7F89499276091F401409196
S1132CA0F6018FBF8FB7F894282F332750E0909107
S1132CB0D1028091D202981709F451E02FBF552315
S1132CC049F5662339F55FB7F89482E08093F401FF
S1132CD08FB7F894282F332740E09091D102809148
S1132CE0D202981709F441E02FBF442311F080E089
S1132CF006C0E091D202FF27EF52FD4F82818093FC
S1132D00F501852F99278FBF83E48093D002109219
S1132D10C9020BC04150423010F010E007C085E4F6
S1132D208093D00281E08093C90211E0772349F0B7
S1132D308FB7F8949927A09325018FBF82E10E9451
S1132D4086018091C8028A3009F415CF112309F451
S1132D50A3C02FB7F89433271092E6011092E5012F
S1132D601092E90181E08093C8022FBF0E949F0264
S1132D70882309F491C08FB7F894992729E0209308
S1132D80C8028FBF0E94AD0187C056985798109211
S1132D904F0110929501539A549A579A1092F8023F
S1132DA07BC081E19FCC5398549876C01092220145
S1132DB0109221018FB7F8949927409125018FBF74
S1132DC080912601811143E020911F01309120015F
S1132DD080912701882309F05FC080911101882325
S1132DE009F05AC060914C0170914D01621773074C
S1132DF009F052C04BC08FB7F894992720912A014B
S1132E0030912B0140918D018FBF8FB7F894E42F3F
S1132E10FF27EE0FFF1FE55FFE4F318320832091D4
S1132E201D01442311F02B7F01C02D7F20931D0130
S1132E301092280199278FBF2FC090915201832FA0
S1132E408923A1F0E22FFF27EE0FFF1FE45BFE4F63
S1132E5011821082832F809598239093520122230C
S1132E6029F41092F802330F21E0E7CF2F5F2830C6
S1132E7098F4330FE2CF80911101E82FFF27EE0F72
S1132E80FF1FE45BFE4F6081718141E00E940B02F1
S1132E9003C0550F41E072CEDF91CF911F910F9186
S1132EA0FF90EF9008958091D9028F3FB1F0282FC1
S1132EB03327F901E452FD4F80818093D9028F3F7B
S1132EC011F48093F4028FEF80832F3F31F0822F2F
S1132ED00E94E11181E090E0089580E090E008957F
S1132EE0CFEFD0E1DEBFCDBFFFB6F89446E150E0AE
S1132EF06FEF70E08CED92E00E94921C8FEF809354
S1132F00D9028093F40281E08EBD88E080BF83E023
S1132F1083BF8CB59DB54AE72CB53DB52817390755
S1132F2008F44150442311F0C901F6CF92B782B797
S1132F308917E9F32CB53DB592B782B78917E9F340
S1132F408CB59DB5821B930B4096B5E096958795FD
S1132F50BA95E1F79093F3018093F20113BE83B71E
S1132F608EBD8EB580BF12BE1DBC1CBC8FEF86BF4C
S1132F7086B780937C0080B7992787709070892BDF
S1132F80D1F7D29AD19AD09ADA9AD99AD89A15BA0C
S1132F908FEF84BBD498DC9810928900109288003B
S1132FA080917D00846080937D0080918A00887F79
S1132FB0826080938A001DBC1CBC87B7846087BF75
S1132FC08EB5887F84608EBD80E285BF0E945317D2
S1132FD08823E1F712E006E06091F2017091F301B9
S1132FE088279927ACE0660F771F881F991FAA9539
S1132FF0D1F720E031EE40E050E00E94CC1C21509B
S1133000304029B9832F9927809390001BB90093EE
S113301095001AB8209399008093980010939B0010
S113302000939D0010929A0084E490E09093E8014C
S11330308093E7011092F4011092F6011092C802F5
S11330401092E9011092D0021092EF011092E60161
S11330501092E5011092D4011092C9021092440119
S1133060109243011092FC011092AB021092B00234
S11330701092EA0110923F0110923E011092D20286
S11330801092D102E1EBF2E08FEF9FEF9183808306
S11330901282339622E0ED3BF207C1F70E94F1045D
S11330A06093310180910001909101010196AA275A
S11330B0BB278093910190939201A0939301B093C5
S11330C0940180B7886080BF8BE083BF86EE81BFA8
S11330D087B7826087BF0E94390483E792E09093A8
S11330E0300180932F018E98B89A8C988FEF80933B
S11330F0F7021092D7011092D8011092D9011092C0
S1133100DA01B89AD69AD59A8FB7F894992720916C
S11331100601309107018FBF3093DB022093DA025E
S11331208091080199279093E4018093E3018FE152
S11331308093DC018AE18093C30281E080938E0155
S11331401092CC02809396011092D3010E945317DF
S11331508823E1F78F2D99278FBF7894109203026B
S1133160109202021092D6011092D50161E081E022
S11331700E94AF028823E9F48FB7F894282F3327ED
S11331808091130190911401892B11F02FBF1BC062
S113319081E090E090931401809313012FBFDD9A96
S11331A00E94710524E130E040E050E00E942E06C8
S11331B00AC062E081E00E94C902882321F461E030
S11331C081E00E94C9028FE00E9486018FB7F894C3
S11331D0482F552749C087B7992783709070892B4A
S11331E019F4E5E0F0E013C080B799278770907078
S11331F0892BD1F781B792B7891B8C3030F082B715
S1133200853F18F4E3E0F0E002C0E2E0F0E087B7C5
S1133210887BC1F480917D008B7FA1F46E9912C0EC
S11332208AB190919A00892B807C61F4809174001A
S113323082FD08C0379B03C081E090E005C085E0B3
S113324090E002C080E090E025B78E1708F4E82FE4
S1133250FF27E854FD4FC895E02D237E2062E22B22
S1133260E5BF78948895F8948091D9028F3F09F44A
S1133270B2CF282F3327F901E452FD4F8081809388
S1133280D9028F3F11F48093F4028FEF80832F3F94
S113329009F4A1CF4FBF822F0E94E11197CF7894F8
S11332A01F920F920FB60F9211242F923F924F92BA
S11332B05F926F927F928F929F92AF92BF92CF92C2
S11332C0DF92EF92FF920F931F932F933F934F93AD
S11332D05F936F937F938F939F93AF93BF93EF937A
S11332E0FF93CF93DF93CDB7DEB72F97F894DEBF6C
S11332F07894CDBF2CB53DB53F872E8780E286BF3D
S11333000E9471059B01AC018E859F857C0100277D
S11333101127DA01C901A070B0708E159F05A007AE
S1133320B10798F4212C312C7FEF472E7FEF572ED5
S1133330220E331E441E551E80E090E0AFEFBFEF17
S1133340282239224A225B220AC0212C312C6FEF19
S1133350462E6FEF562E22223322442255222E2847
S11333603F28402A512A8FB7F89489838091180105
S1133370909119018530910521F0069709F0DBC081
S1133380BAC086E090E0909319018093180191E00F
S11333909093FD0180E00E94BA062091D101309102
S11333A0D201F90121AABB27A52D942D832D8A834F
S11333B09B83AC83BD8380ABC201AA27BB278E83CA
S11333C09F83A887B98787A7852D9927AA27BB2715
S11333D08A879B87AC87BD8786A7E091D101F0914E
S11333E0D20185A5882309F464C080813C96855068
S11333F0E80FF11D94EF892E9FEF992E8E0E9F1EDC
S1133400D4012C9185EF682E8FEF782E6E0E7F1EDF
S1133410D301EC90BF016A507040DB018C91399765
S1133420A0809927AA27BB27BA2FA92F982F8827CE
S1133430332744275527522F442733272227FF2495
S1133440002711278701FF24EE242E293F29402B32
S1133450512BBB24CC24DD242A293B294C295D296A
S1133460822B932BA42BB52B82199309A409B5099C
S11334708083292F3A2F4B2F5527FB0120839D0151
S113348044275527F30120838B2F9927AA27BB278D
S1133490F4018083C098E091D101F091D201608160
S11334A06550772724E0A40180E090E00E9449065B
S11334B0C09AE091D101F091D201818185FF03C0CE
S11334C0F1E0F0932E0183E00E94A70C87B78F7E72
S11334D087BFA091D101B091D201FD018181877094
S11334E0813039F421AA2A8120AB3E8137A78A850D
S11334F086A784996DC01092FD0181E00E94BA06EE
S1133500E091D101F091D201818185FF0FC087E064
S113351090E090931901809318010E94710520E0B6
S113352031E040E050E00E942E0603C080E00E949B
S1133530C10E849B4DC080911A01882349F511E086
S11335401093FD010E94BA068091FE01883098F420
S1133550E091EB01E80FFF27E770F070EE0FFF1F1B
S1133560EE0FFF1FE750FD4F2082318242825382CB
S11335708F5F8093FE0110931A01AE85BF85B093CF
S1133580AE02A093AD02849B03C0B981BFBF22C029
S11335901092FD0181E00E94BA0610921A018091F6
S11335A0AD029091AE02EE85FF85E81BF90B3A97C8
S11335B078F48091FE01882319F081508093FE01F4
S11335C08091D1019091D201009711F00E94E20400
S11335D0F981FFBF2F96F894DEBFCDBFDF91CF9165
S11335E0FF91EF91BF91AF919F918F917F916F91D7
S11335F05F914F913F912F911F910F91FF90EF9009
S1133600DF90CF90BF90AF909F908F907F906F90FE
S11336105F904F903F902F900F900FBE0F901F9090
S11336201895ACE2B0E0E7E1FBE10C940D1D222E0D
S1133630332E442E552E662E772E882E992EFE017B
S11336403196A8E01192AA95E9F729823A824B8231
S11336505C826D827E828F829886FE013996B8E004
S11336601192BA95E9F7A986BA86CB86DC86ED86EF
S1133670FE860F87188B89819A81AB81BC8189A7CB
S11336809AA7ABA7BCA77C018D018FEF9FEFA0E0A9
S1133690B0E0E822F9220A231B2389A59AA5ABA549
S11336A0BCA51D014424552489859A85AB85BC8518
S11336B08DA39EA3AFA3B8A75C016D018FEF9FEF0D
S11336C0A0E0B0E0A822B922CA22DB228DA19EA1EB
S11336D0AFA1B8A53D0188249924C801B701A6016A
S11336E095010E94EE1C69A37AA38BA39CA3C80135
S11336F0B701A40193010E94EE1C7B018C01C2015D
S1133700B101A60195010E94EE1C5B016C01C2018E
S1133710B101A40193010E94EE1C3B014C01EA0C8F
S1133720FB1C0C1D1D1D89A19AA1ABA1BCA19D016F
S1133730442755272E0D3F1D401F511F2A153B05B9
S11337404C055D0540F480E090E0A1E0B0E0680E37
S1133750791E8A1E9B1ECA01AA27BB27860D971DA8
S1133760A81DB91D8D8F9E8FAF8FB8A3A9013327D4
S1133770222789A19AA1ABA1BCA1A070B070280F87
S1133780391F4A1F5B1F298F3A8F4B8F5C8FA98C7F
S1133790BA8CCB8CDC8CED8CFE8C0F8D18A1FE01C9
S11337A0719698E011929A95E9F7ED8AFE8A0F8B4B
S11337B0188F2D813E814F8158856DA17EA18FA1E7
S11337C098A50E94EE1C3B014C012D853E854F853A
S11337D0588969A57AA58BA59CA50E94EE1C2D8904
S11337E03E894F89588D260F371F481F591F260DB4
S11337F0371D481D591D2D8B3E8B4F8B588F6D885F
S11338007E888F88988C2A2D3B2D4C2D5D2D662D1E
S1133810772D882D992DE2E1AC960C94291DA0E119
S1133820B0E0E5E1FCE10C940D1D222E332E442E74
S1133830552E662E772E882E992E002309F466C005
S113384088E0FE01319611928A95E9F729833A833B
S11338504B835C836D837E838F829887E0E2E01BD9
S11338601E16CCF52D813E814F815885602F772718
S113387067FD7095DA01C901062E04C0B695A795B7
S1133880979587950A94D2F78D879E87AF87B88BD3
S113389004C0220F331F441F551FEA95D2F78981B4
S11338A09A81AB81BC8104C0B695A79597958795FD
S11338B06A95D2F7282B392B4A2B5B2B29873A8719
S11338C04B875C8729843A844B845C846D847E8432
S11338D08F8498881BC01D861E861F86188A2E2FEB
S11338E0332727FD3095309521953F4F8D819E815B
S11338F0AF81B88504C0B695A795979587952A9505
S1133900D2F789879A87AB87BC87DCCF222D332DEA
S1133910442D552D662D772D882D992DE2E1609645
S11339200C94291DDC0101C06D9341505040E0F717
S11339300895991B79E004C0991F961708F0961B07
S1133940881F7A95C9F780950895AA1BBB1B51E17E
S113395007C0AA1FBB1FA617B70710F0A61BB70BFB
S1133960881F991F5A95A9F780959095BC01CD01A0
S1133970089597FB092E07260AD077FD04D0E5DFCA
S113398006D000201AF4709561957F4F0895F6F7DC
S1133990909581959F4F0895A1E21A2EAA1BBB1BF7
S11339A0FD010DC0AA1FBB1FEE1FFF1FA217B30707
S11339B0E407F50720F0A21BB30BE40BF50B661F1D
S11339C0771F881F991F1A9469F7609570958095E1
S11339D090959B01AC01BD01CF010895629FD00178
S11339E0739FF001829FE00DF11D649FE00DF11DB6
S11339F0929FF00D839FF00D749FF00D659FF00D65
S1133A009927729FB00DE11DF91F639FB00DE11D51
S1133A10F91FBD01CF01112408952F923F924F92B7
S1133A205F926F927F928F929F92AF92BF92CF924A
S1133A30DF92EF92FF920F931F93CF93DF93CDB753
S1133A40DEB7CA1BDB0B0FB6F894DEBF0FBECDBFCB
S1133A5009942A88398848885F846E847D848C849C
S1133A609B84AA84B984C884DF80EE80FD800C81A5
S1133A701B81AA81B981CE0FD11D0FB6F894DEBF88
S10D3A800FBECDBFED010895FFCF86
S1133A8A0100FFFFFFFF01002201FF0402380204C4
S1053A9A020123
S9030000FC
